:100000000C9450000C946D000C946D000C946D00D9
:100010000C946D000C946D000C946D000C946D00AC
:100020000C946D000C946D000C946D000C946D009C
:100030000C946D000C946D000C946D000C946D008C
:100040000C946D000C946D000C946D000C946D007C
:100050000C946D000C946D000C946D000C946D006C
:100060000C946D000C946D000C946D000C946D005C
:100070000C946D000C946D000C946D000C946D004C
:100080000C946D000C946D000C946D000C946D003C
:100090000C946D000C946D000C946D000C946D002C
:1000A00011241FBECFEFCDBFDFE3DEBF2AE2AEE0FB
:1000B000B8E201C01D92A036B207E1F718E2A0E055
:1000C000B8E2ECE6F3E102C005900D92AE30B10764
:1000D000D9F70E9432010C9498050C9400008A30E4
:1000E00039F49091640895FFFCCF9DE090936208ED
:1000F000282F082E000C330B9091640895FFFCCF3D
:1001000080936208C9010895FC0123E0F695E79504
:100110002A95E1F7E25FF74D8770992701C0660FD6
:100120008A95EAF78081682B608308952F923F9229
:100130004F925F926F927F928F929F92AF92BF92F7
:10014000CF92DF92EF92FF920F931F93CF93DF93A3
:100150003EE0232E38E2332E86E09AE26101F6017A
:1001600011926F018E179F07D1F706E01AE2912CCA
:10017000812CF8014180512C712C612C762C652C3E
:10018000542C44248081482A762C652C542C4424F9
:100190008281482AE40127E1A22EB12C61E0CE0140
:1001A0000E948400D301C2010A2C04C0B695A79511
:1001B000979587950A94D2F77C01F1E0EF22FF240E
:1001C0006E2DCE0101960E9484006E2DCE01029606
:1001D0000E9484006E2DCE0103960E94840060E090
:1001E000CE0104960E94840060E0CE01059626961A
:1001F0000E94840021E0A21AB10880F6E0E98E0E88
:10020000911C0D5F1F4FF0EC8F16FFE09F0609F069
:10021000B0CF8FE090E02091C30825FFFCCF109273
:10022000C4080197C1F78091C30885FFFCCFF10195
:1002300081911F018093C408CE16DF06A1F7DF91DC
:10024000CF911F910F91FF90EF90DF90CF90BF90D3
:10025000AF909F908F907F906F905F904F903F9066
:100260002F900895F89488ED90E084BF90936100FA
:10027000A89584BF809100018660809300018091E1
:10028000010181FDFCCF8DE890E280936808909396
:10029000690880E4809366088091E2058064809319
:1002A000E2058091200480618093200480E098E240
:1002B00080935C2A90935D2A84E39BE40E94BE02B3
:1002C00080917504887F80937504809175048460A3
:1002D0008093750480917504877F8093750485E110
:1002E0008093020681E08093000686E080930106F9
:1002F0008091E3058C7F8093E3058091E305826024
:100300008093E305809180048160809380048091D4
:10031000800484608093800481E68093C00881E833
:100320008093C1080E94960083E49BE40E94BE0271
:100330004FEF5FEF8FEF9FEFD4E03D2EDD24D3949E
:1003400015E0C12E0DE4402E0BE4502E66246A9475
:10035000712C3AE5A32E3AE2B32E30920606D092E3
:10036000080620910B0620FFFCCFD0920B060091CF
:10037000100610911106012F1127C0920606D09287
:10038000080620910B0620FFFCCFD0920B06E090D0
:100390001006F09011069701B6E036952795BA95AC
:1003A000E1F7A8958017910789F48F2D9927841775
:1003B000950761F42FE73AE146E021503040404094
:1003C000E1F700C00000AC01C801C7CFC29EE00148
:1003D000C39ED00D11244E01892C992486948694B5
:1003E000D695C795D695C795DD27DF93CF939F9276
:1003F0008F923F932F931F930F935F924F920E9480
:10040000A802F401EE0FFF1FE80DF91DDF01A65A47
:10041000BC4AE35AFC4AB3016C1B7D0B2C91269F0E
:10042000C001279F900D112440814C9F90014D9F4A
:10043000300D1124820F931F892F9927809F9001DF
:10044000819F300D909F300D112446E03695279501
:100450004A95E1F711968C911197869FA001879F8D
:10046000500D112491809C9EC0019D9E900D1124E1
:10047000480F591F452F5527409FC001419F900DA0
:10048000509F900D112446E0969587954A95E1F787
:100490001296AC91A69FA001A79F500D1124E28156
:1004A000EC9FB001ED9F700D1124640F751F672F35
:1004B0007727609FA001619F500D709F500D112400
:1004C00066E0569547956A95E1F7220F331FF901CB
:1004D000E65AF44B60817181880F991FFC01E65A3E
:1004E000F44BA081B181440F551FFA01E65AF44B39
:1004F00040815181E6E0FAE22DB73EB7265F3F4FDB
:100500002DBF3EBF90E080E00196837099279B014C
:10051000280F391F369527953695279520839D01FD
:10052000280F391F369527953695279521839A01EF
:10053000280F391F369527953695279522833396B0
:10054000AE16BF0609F70E9496008F2D99273BCF64
:10055000B0E0A0E0EEEAF2E00C947705AE014B5F6C
:100560005F4FFA0161917191AF0180915C2A909186
:100570005D2A0E94E902E2E00C9490050F931F931C
:10058000CF93DF93E0915C2AF0915D2A2381EC0107
:1005900010E000E021FD08C00FEF1FEF14C0099527
:1005A000892B11F00FEF1FEF899160915C2A7091F8
:1005B0005D2ADB011896ED91FC918111F0CF8AE064
:1005C0000995892B49F7C801DF91CF911F910F91B0
:1005D0000895ABE0B0E0EFEEF2E00C9467057C012B
:1005E0003B018A01FC0116821782838181FFC8C109
:1005F000CE0101965C01F7019381F30193FD859192
:1006000093FF81913F01882309F453C1853239F466
:1006100093FD859193FF81913F01853229F4B701C4
:1006200090E00E94D904E7CF912C212C312CFFE1DE
:10063000F31538F08B3211F190F4803209F18332E6
:1006400029F137FC3CC020ED280F2A3050F536FE4A
:1006500020C08AE0989E200D1124922E06C08D3273
:1006600091F0803371F7689430F8F30193FD859130
:1006700093FF81913F018111DACF21C0689431F855
:10068000689432F8F2CF689433F8EFCF689434F876
:10069000ECCFEAE02E9E200D1124222E689435F82E
:1006A000E4CF8E3229F436FC04C1689436F8DDCFED
:1006B0008C3619F4689437F8D8CF8836B1F2982F71
:1006C0009F7D95549330E0F08336A1F18337C1F1DB
:1006D000833509F063C02801F2E04F0E511CF80188
:1006E000C080D180692D70E036FC02C06FEF7FEFD3
:1006F000C6010E94C3044C01689437F882010AC005
:100700000C5F1F4FFFE3F98388248394912C6501CC
:10071000E89437F833FE2DC0522C8114910471F502
:10072000552009F468CFB70180E290E00E94D90417
:100730005A94F6CFF801808189830E5F1F4FE4CF72
:100740002801F2E04F0E511CF801C080D180692DC4
:1007500070E036FC02C06FEF7FEFC6010E94CE044E
:100760004C018201D5CFB70180E290E00E94D9040C
:100770002A942814190409F0B0F7CECFF60137FCFB
:10078000859137FE81916F01B70190E00E94D904F5
:1007900051105A94F1E08F1A9108BFCF843619F0A6
:1007A000893609F077C0F80137FE6BC0608171812E
:1007B000828193810C5F1F4FF32DFF763F2E97FFB1
:1007C00009C090958095709561957F4F8F4F9F4F91
:1007D000689437F82AE030E0A5010E940905C82E88
:1007E000CA188C2C432C36FE0CC0E89440F8C9146F
:1007F00040F434FE05C032FC03C0F32DFE7E4F2EC4
:10080000892C44FE95C0FE01EC0DF11D80818033E2
:1008100009F087C0242D297E422E842D8870582E01
:1008200043FC95C040FE8FC09C2C821418F42C0C05
:10083000922C981844FE91C0B70180E390E00E948A
:10084000D90442FE09C088E790E041FE02C088E575
:1008500090E0B7010E94D904C91408F48AC0CA9470
:10086000D12C9FEFC91AD90ACA0CDB1CF601829160
:100870006F01B70190E00E94D904AC14BD04B1F738
:100880004FCF60817181072E000C880B990B0E5F92
:100890001F4F92CFD32CE894D4F82AE030E085376C
:1008A00039F1232D297FD22E8F3601F148F4883576
:1008B000A9F0F701868197812B96E2E10C948005DF
:1008C000803749F08837A9F7D4FE02C06894D2F87F
:1008D00020E130E00DC06894D4F8F6CF34FE03C0B8
:1008E000822F8660D82E20E132E002C028E030E07E
:1008F000F801D7FE0FC060817181828193810C5F06
:100900001F4FA5010E940905C82ECA183D2CE89466
:1009100037F867CF6081718190E080E00E5F1F4FF4
:10092000F0CF42FC02C0839478CF8394839475CF38
:10093000842D867809F471CFF6CFB70180E290E07C
:100940000E94D90483948214C0F3512C73CF522C8B
:100950005818821408F46ECFF8CF842D867809F4E5
:100960007BCF8BE241FE80E247FC8DE2B70190E055
:1009700071CFB70180E390E00E94D9049A946CCFC4
:100980008FEF9FEF99CFFC010590615070400110EF
:10099000D8F7809590958E0F9F1F0895FC016150A8
:1009A000704001900110D8F7809590958E0F9F1F91
:1009B00008950F931F93CF93DF93182F092FEB0107
:1009C0008B8181FD09C01FEF0FEF812F902FDF91E9
:1009D000CF911F910F91089582FF14C02E813F8106
:1009E0008C819D81281739073CF4E881F981CF017A
:1009F00001968883998310838E819F8101968E83CF
:100A00009F83E3CFE885F985812F0995892BA1F391
:100A1000DACFFA01AA27283051F1203181F1E89488
:100A20006F936E7F6E5F7F4F8F4F9F4FAF4FB1E0E1
:100A30003ED0B4E03CD0670F781F891F9A1FA11DDC
:100A4000680F791F8A1F911DA11D6A0F711D811DDD
:100A5000911DA11D20D009F468943F912AE0269FA2
:100A600011243019305D3193DEF6CF010895462F01
:100A70004770405D4193B3E00FD0C9F7F6CF462FE2
:100A80004F70405D4A3318F0495D31FD405241934B
:100A900002D0A9F7EACFB4E0A69597958795779508
:100AA0006795BA95C9F700976105710508959B018F
:100AB000AC010A2E06945795479537952795BA9518
:100AC000C9F7620F731F841F951FA01D08952F92F1
:100AD0003F924F925F926F927F928F929F92AF92CE
:100AE000BF92CF92DF92EF92FF920F931F93CF931B
:100AF000DF93CDB7DEB7CA1BDB0BCDBFDEBF0994DA
:100B00002A88398848885F846E847D848C849B849D
:100B1000AA84B984C884DF80EE80FD800C811B81AB
:100B2000AA81B981CE0FD11DCDBFDEBFED010895E1
:040B3000F894FFCF67
:100B34005374617274696E672075702E2E2E004D89
:100B440061696E206C6F6F700025752025752025F6
:100B5400752E25750A00000000000000000000004A
:100B64000000000000000000000000000000000081
:100B74000000000000000000000000000000000071
:100B84000000000000000000000000000000000061
:100B9400000000000000010001000100010001004C
:100BA4000100010001000100010001000100010039
:100BB4000100020002000200020002000200020022
:100BC400020002000200030003000300030003000C
:100BD40003000300030004000400040004000400F4
:100BE40004000400040005000500050005000500DC
:100BF40005000500060006000600060006000600C3
:100C040007000700070007000700070008000800A6
:100C1400080008000800090009000900090009008B
:100C240009000A000A000A000A000A000B000B006F
:100C34000B000B000C000C000C000C000C000D0051
:100C44000D000D000D000E000E000E000E000F0032
:100C54000F000F000F001000100010001000110012
:100C640011001100110012001200120012001300F2
:100C740013001300130014001400140015001500D1
:100C840015001500160016001600170017001700AF
:100C940018001800180019001900190019001A008A
:100CA4001A001A001B001B001B001C001C001C0067
:100CB4001D001D001D001E001E001E001F001F0041
:100CC4002000200020002100210021002200220019
:100CD40022002300230024002400240025002500F2
:100CE40025002600260027002700270028002800CA
:100CF4002900290029002A002A002B002B002B00A0
:100D04002C002C002D002D002E002E002E002F0074
:100D14002F00300030003100310031003200320049
:100D2400330033003400340035003500350036001C
:100D340036003700370038003800390039003A00EF
:100D44003A003B003B003C003C003D003D003E00BF
:100D54003E003F003F00400040004100410042008F
:100D6400420043004300440044004500450046005F
:100D740046004700470048004800490049004A002F
:100D84004B004B004C004C004D004D004E004E00FB
:100D94004F004F00500051005100520052005300C8
:100DA4005300540055005500560056005700570094
:100DB4005800590059005A005A005B005C005C005E
:100DC4005D005D005E005F005F0060006000610028
:100DD40062006200630064006400650065006600F0
:100DE400670067006800690069006A006B006B00B7
:100DF4006C006D006D006E006F006F00700071007C
:100E04007100720073007300740075007500760041
:100E1400770077007800790079007A007B007B0006
:100E24007C007D007D007E007F00800080008100CA
:100E3400820082008300840085008500860087008C
:100E44008800880089008A008A008B008C008D004D
:100E54008D008E008F00900090009100920093000E
:100E640093009400950096009600970098009900CE
:100E74009A009A009B009C009D009D009E009F008C
:100E8400A000A100A100A200A300A400A500A50049
:100E9400A600A700A800A900A900AA00AB00AC0006
:100EA400AD00AE00AE00AF00B000B100B200B300C0
:100EB400B300B400B500B600B700B800B800B9007C
:100EC400BA00BB00BC00BD00BE00BE00BF00C00035
:100ED400C100C200C300C400C500C500C600C700ED
:100EE400C800C900CA00CB00CC00CD00CD00CE00A4
:100EF400CF00D000D100D200D300D400D500D6005A
:100F0400D700D700D800D900DA00DB00DC00DD0010
:100F1400DE00DF00E000E100E200E300E400E400C2
:100F2400E500E600E700E800E900EA00EB00EC0079
:100F3400ED00EE00EF00F000F100F200F300F40029
:100F4400F500F600F700F800F900FA00FB00FC00D9
:100F5400FD00FE00FF000001010102010301040184
:100F6400050106010701080109010A010B010C0131
:100F74000D010E010F0110011101120113011401E1
:100F8400150116011701180119011A011B011D0190
:100F94001E011F0120012101220123012401250139
:100FA40026012701280129012A012C012D012E01E6
:100FB4002F01300131013201330134013501360191
:100FC400380139013A013B013C013D013E013F0139
:100FD40040014201430144014501460147014801E2
:100FE40049014B014C014D014E014F01500151018A
:100FF4005301540155015601570158015A015B012F
:101004005C015D015E015F016101620163016401D4
:1010140065016601680169016A016B016C016E0179
:101024006F0170017101720174017501760177011C
:1010340078017A017B017C017D017F0180018101BE
:101044008201830185018601870188018A018B0160
:101054008C018D018F019001910192019401950100
:101064009601970199019A019B019D019E019F019F
:10107400A001A201A301A401A501A701A801A9013E
:10108400AB01AC01AD01AE01B001B101B201B401DB
:10109400B501B601B801B901BA01BC01BD01BE0177
:1010A400C001C101C201C401C501C601C801C90111
:1010B400CA01CC01CD01CE01D001D101D201D401AC
:1010C400D501D601D801D901DA01DC01DD01DE0147
:1010D400E001E101E301E401E501E701E801E901DF
:1010E400EB01EC01EE01EF01F001F201F301F50176
:1010F400F601F701F901FA01FC01FD01FE0100020C
:101104000102030204020602070208020A020B0299
:101114000D020E021002110212021402150217022D
:1011240018021A021B021D021E02200221022202C0
:1011340024022502270228022A022B022D022E0253
:1011440030023102330234023602370239023A02E3
:101154003C023D023F024002420243024502460273
:10116400480249024B024C024E024F025102520203
:1011740054025502570258025A025B025D025E0293
:1011840060026202630265026602680269026B021F
:101194006C026E02700271027302740276027702AC
:1011A40079027B027C027E027F0281028202840237
:1011B4008602870289028A028C028E028F029102C1
:1011C400920294029602970299029A029C029E024B
:1011D4009F02A102A302A402A602A702A902AB02D3
:1011E400AC02AE02B002B102B302B502B602B8025A
:1011F400B902BB02BD02BE02C002C202C302C502E2
:10120400C702C802CA02CC02CD02CF02D102D20266
:10121400D402D602D802D902DB02DD02DE02E002E9
:10122400E202E302E502E702E802EA02EC02EE026D
:10123400EF02F102F302F402F602F802FA02FB02F0
:10124400FD02FF020103020304030603080309036A
:101254000B030D030F0310031203140316031703E8
:1012640019031B031D031E03200322032403250368
:10127400270329032B032D032E03300332033403E6
:101284003503370339033B033D033E034003420365
:1012940044034603480349034B034D034F035103DF
:1012A40052035403560358035A035C035D035F035C
:1012B400610363036503670368036A036C036E03D6
:1012C4007003720374037503770379037B037D034F
:1012D4007F03810383038403860388038A038C03C7
:1012E4008E039003920393039503970399039B033F
:1012F4009D039F03A103A303A503A603A803AA03B5
:10130400AC03AE03B003B203B403B603B803BA0329
:10131400BC03BE03C003C103C303C503C703C9039E
:10132400CB03CD03CF03D103D303D503D703D90311
:10133400DB03DD03DF03E103E303E503E703E90381
:10134400EB03ED03EF03F103F303F503F703F903F1
:10135400FB03FD03FF03FFFFFF0000FF00FF00FF8F
:08136400FF00FF0000FD9640B0
:0E136C0000000002000000006F000000000002
:00000001FF
