:100000000C9450000C945A000C945A000C945A0012
:100010000C945A000C945A000C945A000C945A00F8
:100020000C945A000C945A000C945A000C945A00E8
:100030000C945A000C945A000C945A000C945A00D8
:100040000C945A000C945A000C945A000C945A00C8
:100050000C945A000C945A000C945A000C945A00B8
:100060000C945A000C945A000C945A000C945A00A8
:100070000C945A000C945A000C945A000C945A0098
:100080000C945A000C945A000C945A000C945A0088
:100090000C945A000C945A000C945A000C945A0078
:1000A00011241FBECFEFCDBFDFE3DEBF0E945C0097
:1000B0000C94A0000C940000F89488ED90E084BFAC
:1000C000909361008DE890E28093680890936908AE
:1000D00080E4809366088091E20580648093E20565
:1000E000809120048061809320044AEA3DE02AE068
:1000F0008091640885FFFCCF40936208E5E4F1E459
:1001000098E48091640885FFFCCF909362089191F8
:100110009111F7CF8091640885FFFCCF309362087E
:100120008091640885FFFCCF209362085FEF88E030
:100130009DE3515080409040E1F700C00000D8CFCF
:04014000F894FFCF61
:1001440048656C6C6F20776F726C642120486F7700
:0E0154002061726520796F75206E6F773F0015
:00000001FF
