:100000000C9450000C946D000C946D000C946D00D9
:100010000C946D000C946D000C946D000C946D00AC
:100020000C946D000C946D000C946D000C946D009C
:100030000C946D000C946D000C946D000C946D008C
:100040000C946D000C946D000C946D000C946D007C
:100050000C946D000C946D000C946D000C946D006C
:100060000C946D000C946D000C946D000C946D005C
:100070000C946D000C946D000C946D000C946D004C
:100080000C946D000C946D000C946D000C946D003C
:100090000C946D000C946D000C946D000C946D002C
:1000A00011241FBECFEFCDBFDFE3DEBF28E2AEE0FD
:1000B000B8E201C01D92A431B207E1F718E2A0E056
:1000C000B8E2EFE5F2E002C005900D92AE30B10764
:1000D000D9F70E9484000C9426010C9400008A3009
:1000E00039F49091640895FFFCCF9DE090936208ED
:1000F000282F082E000C330B9091640895FFFCCF3D
:1001000080936208C9010895F89488ED90E084BF57
:10011000909361008DE890E280936808909369085D
:1001200080E4809366088091E20580648093E20514
:100130008091200480618093200480E098E2809385
:1001400010289093112880E592E40E94FB00809192
:100150007504887F80937504809175048460809312
:10016000750480917504877F8093750485E1809381
:10017000020681E08093000685E08093060686E013
:1001800080930106809120048160809320048091F7
:10019000E40581608093E4058FEF90E08093260A68
:1001A0009093270A80E190E08093280A9093290A8F
:1001B0008DE08093000A83E18093010A21E020937F
:1001C000080680910B0680FFFCCF20930B068091E0
:1001D000100690911106892F99278093280A9093F1
:1001E000290A3FE78AE196E0315080409040E1F7EC
:1001F00000C00000E4CF0F931F93CF93DF93E091F3
:100200001028F09111282381EC0110E000E021FD7D
:1002100008C00FEF1FEF14C00995892B11F00FEFE5
:100220001FEF89916091102870911128DB011896B9
:10023000ED91FC918111F0CF8AE00995892B49F766
:10024000C801DF91CF911F910F910895F894FFCFCE
:0F0250005374617274696E672075702E2E2E00C4
:0E025F0000000002000000006F000000000020
:00000001FF
