:100000000C9450000C9462000C9462000C946200FA
:100010000C9462000C9462000C9462000C946200D8
:100020000C9462000C9462000C9462000C946200C8
:100030000C9462000C9462000C9462000C946200B8
:100040000C9462000C9462000C9462000C946200A8
:100050000C9462000C9462000C9462000C94620098
:100060000C9462000C9462000C9462000C94620088
:100070000C9462000C9462000C9462000C94620078
:100080000C9462000C9462000C9429020C9462009F
:100090000C9462000C9462000C9462000C94620058
:1000A00011241FBECFEFCDBFDFE3DEBF2AE2A0E009
:1000B000B8E201C01D92A53FB207E1F70E94990185
:1000C0000C944C020C940000FC0123E0F695E7959B
:1000D0002A95E1F7E050F84D8770992701C0660F27
:1000E0008A95EAF78081682B608308952F923F926A
:1000F0004F925F926F927F928F929F92AF92BF9238
:10010000CF92DF92EF92FF920F931F93CF93DF93E3
:10011000A89530E0232E38E2332E88E89AE2610178
:10012000F60111926F018E179F07D1F709E81AE2C5
:10013000912C812CF8014180512C712C612C762C52
:10014000652C542C44248081482A762C652C542C10
:1001500044248281482AE40127E1A22EB12C61E0E7
:10016000CE010E946400D301C2010A2C04C0B695DE
:10017000A795979587950A94D2F77C01F1E0EF2235
:10018000FF246E2DCE0101960E9464006E2DCE01DB
:1001900002960E9464006E2DCE0103960E946400B8
:1001A00060E0CE0104960E94640060E0CE010596F6
:1001B00026960E94640021E0A21AB10880F6E0E9C8
:1001C0008E0E911C0D5F1F4FF0E48F16F4E19F0619
:1001D00009F0B0CF8FE090E02091C30825FFFCCF5D
:1001E0001092C4080197C1F78091C30885FFFCCF26
:1001F000F10181911F018093C408CE16DF06A1F79B
:10020000DF91CF911F910F91FF90EF90DF90CF90F2
:10021000BF90AF909F908F907F906F905F904F9026
:100220003F902F9008951F93CF93DF93C9E8DAE2B0
:100230001FE1188319821A820E94760023968AE2AF
:10024000C53FD807B1F7DF91CF911F9108951F9354
:10025000CF93DF93C9E8DAE21AEF188319821A8282
:100260000E94760023968AE2C53FD807B1F7DF9156
:10027000CF911F9108950F931F93CF93DF93C9E8F8
:10028000DAE20CED1EE1088319831A820E947600DF
:1002900023968AE2C53FD807B1F7DF91CF911F912E
:1002A0000F910895FF920F931F93CF93DF93C9E8A7
:1002B000DAE283E5F82E09E113E0F88209831A8374
:1002C0000E94760023968AE2C53FD807B1F7DF91F6
:1002D000CF911F910F91FF900895FF920F931F935D
:1002E000CF93DF93C9E8DAE28AEFF82E0BE41AE045
:1002F000F88209831A830E94760023968AE2C53F1A
:10030000D807B1F7DF91CF911F910F91FF9008951A
:10031000CF93DF93C9E8DAE2188219821A820E9429
:10032000760023968AE2C53FD807B1F7DF91CF91D7
:100330000895F89488ED90E084BF90936100A895AB
:1003400084BF80910001866080930001809101014B
:1003500081FDFCCF80915000897F846080935000A4
:10036000809150008160809350008091E3058C7FE4
:100370008093E3058091E30582608093E30580919B
:1003800080048160809380048091800484608093E5
:10039000800481E68093C00881E88093C108809141
:1003A00020048E7F8093200489E080933004809124
:1003B000280481709091882A89138093882AE9E81B
:1003C000FAE285EF9AE210821182128239968E1734
:1003D0009F07C9F70E947600D0E0C0E018ED96E0D4
:1003E000E92EF12CA89514BF80910001807F8093A5
:1003F000000178948895F894A89514BF8091000125
:100400008660809300018091010181FDFCCF2FE780
:1004100088E391E0215080409040E1F700C0000067
:100420008091280481709091882A8917D9F280934D
:10043000882ACE010196B7010E943802EC01FC0126
:10044000EE0FFF1FE456FB4B0190F081E02D099564
:10045000C9CF1F920F920FB60F9211248F9381E094
:10046000809329048F910F900FBE0F901F901895C5
:10047000AA1BBB1B51E107C0AA1FBB1FA617B707CA
:1004800010F0A61BB70B881F991F5A95A9F78095E6
:0C0490009095BC01CD010895F894FFCFB9
:0C049C0088016D0152013B012701130192
:00000001FF
