:100000000C9450000C946D000C946D000C946D00D9
:100010000C946D000C946D000C946D000C946D00AC
:100020000C946D000C946D000C946D000C946D009C
:100030000C946D000C946D000C946D000C946D008C
:100040000C946D000C946D000C946D000C946D007C
:100050000C946D000C946D000C946D000C946D006C
:100060000C946D000C946D000C946D000C946D005C
:100070000C946D000C946D000C946D000C946D004C
:100080000C946D000C946D000C946D000C946D003C
:100090000C946D000C946D000C946D000C946D002C
:1000A00011241FBECFEFCDBFDFE3DEBF2AE2AEE0FB
:1000B000B8E201C01D92A036B207E1F718E2A0E055
:1000C000B8E2EBE8FDE002C005900D92AE30B1075A
:1000D000D9F70E9432010C94B3020C9400008A30CC
:1000E00039F49091640895FFFCCF9DE090936208ED
:1000F000282F082E000C330B9091640895FFFCCF3D
:1001000080936208C9010895FC0123E0F695E79504
:100110002A95E1F7E25FF74D8770992701C0660FD6
:100120008A95EAF78081682B608308952F923F9229
:100130004F925F926F927F928F929F92AF92BF92F7
:10014000CF92DF92EF92FF920F931F93CF93DF93A3
:100150003EE0232E38E2332E86E09AE26101F6017A
:1001600011926F018E179F07D1F706E01AE2912CCA
:10017000812CF8014180512C712C612C762C652C3E
:10018000542C44248081482A762C652C542C4424F9
:100190008281482AE40127E1A22EB12C61E0CE0140
:1001A0000E948400D301C2010A2C04C0B695A79511
:1001B000979587950A94D2F77C01F1E0EF22FF240E
:1001C0006E2DCE0101960E9484006E2DCE01029606
:1001D0000E9484006E2DCE0103960E94840060E090
:1001E000CE0104960E94840060E0CE01059626961A
:1001F0000E94840021E0A21AB10880F6E0E98E0E88
:10020000911C0D5F1F4FF0EC8F16FFE09F0609F069
:10021000B0CF8FE090E02091C30825FFFCCF109273
:10022000C4080197C1F78091C30885FFFCCFF10195
:1002300081911F018093C408CE16DF06A1F7DF91DC
:10024000CF911F910F91FF90EF90DF90CF90BF90D3
:10025000AF909F908F907F906F905F904F903F9066
:100260002F900895F89488ED90E084BF90936100FA
:100270008DE890E2809368089093690880E4809309
:1002800066088091E20580648093E20580912004F5
:1002900080618093200480E098E280935C2A9093B0
:1002A0005D2A8AE695E40E94880280917504887F21
:1002B00080937504809175048460809375048091A7
:1002C0007504877F8093750485E18093020681E041
:1002D0008093000686E0809301068091E3058C7F81
:1002E0008093E3058091E30582608093E30580912C
:1002F0008004816080938004809180048460809376
:10030000800481E68093C00881E88093C1080E9440
:1003100096002FEF3FEF8FEF9FEF05E0E02EFF24D9
:10032000F39444E0742E88248A94912C6AE5A62ED6
:100330006AE2B62EE0920606F092080640910B069D
:1003400040FFFCCFF0920B06C0911006D091110631
:10035000CD2FDD2770920606F092080640910B061D
:1003600040FFFCCFF0920B06009110061091110691
:10037000A801B6E056954795BA95E1F78C179D0709
:1003800089F4812F99278217930761F42FE73AE1C7
:1003900046E0215030404040E1F700C000009C01A1
:1003A000CE01C8CFE49EF001E59EF00D1124AF010F
:1003B00056954795569547955527EF2FFF27E69574
:1003C000E695CF01880F991FE80FF91FCF018758D5
:1003D000924B6C019F012458324B2901D401A41B7C
:1003E000B50BFC0120812A9FC0012B9F900D112489
:1003F000F2016081649F9001659F300D1124820F8E
:10040000931F892F99278C9F90018D9F300D9C9F62
:10041000300D112466E0369527956A95E1F7F601CF
:1004200081818A9FB0018B9F700D1124F201618040
:10043000649EC001659E900D1124680F791F672F7F
:1004400077276C9FC0016D9F900D7C9F900D1124AC
:10045000F6E096958795FA95E1F7F601D280DA9E57
:10046000B001DB9E700D1124F201A281A49FF00166
:10047000A59FF00D11246E0F7F1F672F77276C9FAC
:10048000A0016D9F500D7C9F500D1124B6E0569534
:100490004795BA95E1F7220F331FF901E758FA4B58
:1004A00060817181880F991FFC01E758FA4BA08188
:1004B000B181440F551FFA01E758FA4B4081518131
:1004C000E6E0FAE290E080E00196837099279B01D4
:1004D000280F391F369527953695279520839D013E
:1004E000280F391F369527953695279521839A0130
:1004F000280F391F369527953695279522833396F1
:10050000AE16BF0609F70E949600812F992747CFA4
:100510000F931F93CF93DF93E0915C2AF0915D2AB4
:100520002381EC0110E000E021FD08C00FEF1FEF78
:1005300014C00995892B11F00FEF1FEF899160917D
:100540005C2A70915D2ADB011896ED91FC91811176
:10055000F0CF8AE00995892B49F7C801DF91CF9147
:0A0560001F910F910895F894FFCF4A
:10056A005374617274696E672075702E2E2E0000A6
:10057A000000000000000000000000000000000071
:10058A000000000000000000000000000000000061
:10059A000000000000000000000000000000000051
:1005AA000000000000000000000000000000000140
:1005BA000001000100010001000100010001000129
:1005CA000001000100010001000100020002000216
:1005DA000002000200020002000200020002000300
:1005EA0000030003000300030003000300030004E8
:1005FA0000040004000400040004000400040005D0
:10060A0000050005000500050005000500060006B6
:10061A00000600060006000600070007000700079C
:10062A000007000700080008000800080008000981
:10063A0000090009000900090009000A000A000A65
:10064A00000A000A000B000B000B000B000C000C48
:10065A00000C000C000C000D000D000D000D000E2A
:10066A00000E000E000E000F000F000F000F00100A
:10067A0000100010001000110011001100110012EA
:10068A0000120012001200130013001300130014CA
:10069A0000140014001500150015001500160016A8
:1006AA000016001700170017001800180018001984
:1006BA00001900190019001A001A001A001B001B61
:1006CA00001B001C001C001C001D001D001D001E3C
:1006DA00001E001E001F001F002000200020002115
:1006EA0000210021002200220022002300230024EE
:1006FA0000240024002500250025002600260027C6
:10070A000027002700280028002900290029002A9C
:10071A00002A002B002B002B002C002C002D002D72
:10072A00002E002E002E002F002F00300030003146
:10073A00003100310032003200330033003400341B
:10074A0000350035003500360036003700370038EE
:10075A00003800390039003A003A003B003B003CBF
:10076A00003C003D003D003E003E003F003F00408F
:10077A00004000410041004200420043004300445F
:10078A00004400450045004600460047004700482F
:10079A00004800490049004A004B004B004C004CFD
:1007AA00004D004D004E004E004F004F00500051CA
:1007BA000051005200520053005300540055005596
:1007CA000056005600570057005800590059005A61
:1007DA00005A005B005C005C005D005D005E005F2B
:1007EA00005F0060006000610062006200630064F4
:1007FA0000640065006500660067006700680069BC
:10080A000069006A006B006B006C006D006D006E81
:10081A00006F006F00700071007100720073007346
:10082A00007400750075007600770077007800790B
:10083A000079007A007B007B007C007D007D007ED1
:10084A00007F008000800081008200820083008493
:10085A000085008500860087008800880089008A54
:10086A00008A008B008C008D008D008E008F009016
:10087A0000900091009200930093009400950096D6
:10088A000096009700980099009A009A009B009C95
:10089A00009D009D009E009F00A000A100A100A253
:1008AA0000A300A400A500A500A600A700A800A90F
:1008BA0000A900AA00AB00AC00AD00AE00AE00AFCC
:1008CA0000B000B100B200B300B300B400B500B686
:1008DA0000B700B800B800B900BA00BB00BC00BD40
:1008EA0000BE00BE00BF00C000C100C200C300C4F9
:1008FA0000C500C500C600C700C800C900CA00CBB1
:10090A0000CC00CD00CD00CE00CF00D000D100D267
:10091A0000D300D400D500D600D700D700D800D91C
:10092A0000DA00DB00DC00DD00DE00DF00E000E1D1
:10093A0000E200E300E400E400E500E600E700E886
:10094A0000E900EA00EB00EC00ED00EE00EF00F039
:10095A0000F100F200F300F400F500F600F700F8E9
:10096A0000F900FA00FB00FC00FD00FE00FF000099
:10097A000101010201030104010501060107010841
:10098A000109010A010B010C010D010E010F0110F1
:10099A0001110112011301140115011601170118A1
:1009AA000119011A011B011D011E011F012001214C
:1009BA0001220123012401250126012701280129F9
:1009CA00012A012C012D012E012F013001310132A2
:1009DA00013301340135013601380139013A013B4D
:1009EA00013C013D013E013F0140014201430144F6
:1009FA0001450146014701480149014B014C014D9E
:100A0A00014E014F01500151015301540155015644
:100A1A0001570158015A015B015C015D015E015FEA
:100A2A00016101620163016401650166016801698E
:100A3A00016A016B016C016E016F01700171017233
:100A4A0001740175017601770178017A017B017CD5
:100A5A00017D017F01800181018201830185018677
:100A6A0001870188018A018B018C018D018F019018
:100A7A000191019201940195019601970199019AB8
:100A8A00019B019D019E019F01A001A201A301A456
:100A9A0001A501A701A801A901AB01AC01AD01AEF5
:100AAA0001B001B101B201B401B501B601B801B991
:100ABA0001BA01BC01BD01BE01C001C101C201C42C
:100ACA0001C501C601C801C901CA01CC01CD01CEC7
:100ADA0001D001D101D201D401D501D601D801D961
:100AEA0001DA01DC01DD01DE01E001E101E301E4FB
:100AFA0001E501E701E801E901EB01EC01EE01EF93
:100B0A0001F001F201F301F501F601F701F901FA29
:100B1A0001FC01FD01FE01000201020302040206BA
:100B2A0002070208020A020B020D020E021002114B
:100B3A0002120214021502170218021A021B021DDF
:100B4A00021E022002210222022402250227022872
:100B5A00022A022B022D022E023002310233023403
:100B6A00023602370239023A023C023D023F024093
:100B7A00024202430245024602480249024B024C23
:100B8A00024E024F025102520254025502570258B3
:100B9A00025A025B025D025E026002620263026541
:100BAA00026602680269026B026C026E02700271CE
:100BBA0002730274027602770279027B027C027E59
:100BCA00027F028102820284028602870289028AE5
:100BDA00028C028E028F029102920294029602976E
:100BEA000299029A029C029E029F02A102A302A4F7
:100BFA0002A602A702A902AB02AC02AE02B002B17F
:100C0A0002B302B502B602B802B902BB02BD02BE05
:100C1A0002C002C202C302C502C702C802CA02CC8B
:100C2A0002CD02CF02D102D202D402D602D802D910
:100C3A0002DB02DD02DE02E002E202E302E502E793
:100C4A0002E802EA02EC02EE02EF02F102F302F417
:100C5A0002F602F802FA02FB02FD02FF0201030297
:100C6A000304030603080309030B030D030F031010
:100C7A0003120314031603170319031B031D031E90
:100C8A00032003220324032503270329032B032D0F
:100C9A00032E033003320334033503370339033B8E
:100CAA00033D033E0340034203440346034803490A
:100CBA00034B034D034F0351035203540356035886
:100CCA00035A035C035D035F036103630365036700
:100CDA000368036A036C036E03700372037403757B
:100CEA0003770379037B037D037F038103830384F3
:100CFA0003860388038A038C038E0390039203936B
:100D0A00039503970399039B039D039F03A103A3E1
:100D1A0003A503A603A803AA03AC03AE03B003B258
:100D2A0003B403B603B803BA03BC03BE03C003C1CA
:100D3A0003C303C503C703C903CB03CD03CF03D141
:100D4A0003D303D503D703D903DB03DD03DF03E1B1
:100D5A0003E303E503E703E903EB03ED03EF03F121
:100D6A0003F303F503F703F903FB03FD03FF03FF93
:100D7A00FFFF0000FF00FF00FFFF00FF0000FD96DD
:010D8A004028
:0E0D8B0000000002000000006F0000000000E9
:00000001FF
